:10000000F8FF002011040000DF310000DF310000A4
:10001000DF310000DF310000DF310000DF310000A0
:10002000DF310000DF310000DF310000DF31000090
:10003000DF310000DF310000DF310000DF31000080
:10004000DF310000DF310000DF310000DF31000070
:10040000FFFFFFFFFFFFFFFFFFFFFFFFFEFFFFFFFD
:1004100062B604F0B1FDFEE72DE9F04FA1B08046D1
:1004200017461D46029102AE0020706211AC6FF0BB
:1004300000490AE017F8011B0298C0470290002803
:1004400000F07882706A401C7062387808B9706A6F
:1004500072E22528EED10020F06030617061B06159
:10046000F061306201E040F0010017F8011F20291F
:10047000F9D023290ED02B2904D02D2906D03029DC
:100480000CD00FE040F0020080B2EEE740F0040034
:1004900080B2EAE740F0080080B2E6E740F01000E2
:1004A00080B2E2E72A290DD129680A1D2A6009686D
:1004B000F162002904D54942F16240F0040080B2A3
:1004C0007F1C11E00021F16209E0F16A494505D085
:1004D00001EB810302EB43013039F1627F1C3A7872
:1004E000A2F130010A29F0D339782E291CBF4FF030
:1004F000FF31B1621CD117F8011F2A2906D12968E2
:100500000A1D2A600968B1627F1C11E00021B162F6
:1005100009E0B16A494505D001EB810302EB4301D3
:100520003039B1627F1C3A78A2F130010A29F0D348
:10053000308639780FF6242000F02EFD08B117F828
:10054000010B8DF83A009DF83A00682804D13878FC
:1005500068280AD1622005E06C2804BF38786C282E
:1005600003D171208DF83A007F1C11A8B0603A7851
:100570001046253821D02038022870D9133800F0D1
:100580009A800B3800F03781401E00F0DD80401E5D
:10059000022864D9001F00F0D780401F34D0401ECD
:1005A00000F08980401E24D0C01E0CD0801E00F0B8
:1005B0008280C01E00F07F8026E1F068411CF1605F
:1005C000252101552AE12868011D29600068706015
:1005D000B26A002A03D500F0EBFC30611EE1002175
:1005E00000F002FD00281ABF7168401AB06A30613D
:1005F00014E12868011D296000680021CDE900018F
:1006000011A870607821F2E09DF83A00622818D0B5
:10061000682806D06A280BD06C2819D0712807D01A
:1006200016E02868011D2960716A00680180F5E004
:100630002A68101D2860706AC1171268C2E900019B
:10064000ECE02868011D2960716A00680170E5E02E
:100650002868011D2960716A00680160DEE0286871
:10066000C01D20F007002860034603F10800286041
:10067000D3E90001CDE90001002904D5F068411C4F
:10068000F1602D210DE0308E810704D5F068411C0A
:10069000F1602B2105E0C00704D5F068411CF16032
:1006A00020210155F06811A940187060114600A87A
:1006B00000F0D8F9B2E09DF83A306C2B08BF2868FA
:1006C00011D0712B08BF286802D06A2B28680AD184
:1006D000C01D20F00700286084460CF10800286047
:1006E000DCE9000103E0011D296000680021CDE97B
:1006F0000001682B04BFDDE9000180B20BD0622B42
:1007000004BFDDE90001C0B205D0742B18BF7A2BFD
:1007100004D1DDE900010021CDE9000196F83000A7
:1007200000075FD5DDE90001002908BF002859D086
:1007300042F02000782855D1F06830210155401C46
:10074000411CF16002554DE09DF83A0062280CD042
:10075000682810D06A281AD06C2824D0712816D0A6
:10076000742820D07A280CD01DE02868011D29604B
:1007700090F900001BE02868011D2960B0F9000015
:1007800015E02868011D29600068002110E0286834
:10079000C01D20F007002860034603F10800286010
:1007A000D3E9000104E02868011D29600068C11731
:1007B000CDE90001DDE90001002904DAF068411CFF
:1007C000F1602D210DE0308E810704D5F068411CC9
:1007D000F1602B2105E0C00704D5F068411CF160F1
:1007E00020210155F06811A940187060114600A839
:1007F00000F0A5F812E0F068411CF16029680A1DBC
:100800002A600968015509E0F068411CF160252162
:1008100001551AB1F068411CF16002557F1CF06A65
:10082000F168401AB169401A3169401AF169401AF9
:100830007169401A316AA0EB010A96F8300040074E
:1008400011D420208DF84000BAF1010F0BDBD34604
:10085000012310AA00A9404600F069FB002869D1D5
:10086000BBF1010BF4D1F36811AA00A9404600F0D6
:100870005EFB00285ED130208DF84000D6F818B01D
:10088000BBF1010F0ADB012310AA00A9404600F0CA
:100890004EFB00284ED1BBF1010BF4D133697268D5
:1008A00000A9404600F043FB002843D130208DF8DA
:1008B0004000D6F81CB0BBF1010F09DB012310AAE0
:1008C00000A9404600F033FBA0BBBBF1010BF5D102
:1008D000736930697168421800A9404600F027FB2F
:1008E00040BB30208DF84000D6F820B0BBF1010F9E
:1008F00009DB012310AA00A9404600F018FBC8B983
:10090000BBF1010BF5D196F8300040077FF59DADA6
:1009100020208DF84000BAF1010FFFF696AD0123BB
:1009200010AA00A9404600F002FB18B9BAF1010A6A
:10093000F5D18AE54FF0FF3021B0BDE8F08F2DE909
:10094000FA4B86B005462F696F2908BF082605D0E7
:1009500041F02000782814BF0A2610263C24D5E94F
:10096000000181468B469DF81820642A18BF692A29
:1009700005D1002903DAD9F100096BEB4B0BBBF170
:10098000000F08BFB9F1000F0CD1286B50B9082E29
:1009900044D195F83800000740D53B24302087F833
:1009A0003B003BE0A4F101084446F017CDE90460A8
:1009B00048465946DDE9042300F042FBCDE9020137
:1009C000CDE9009BDDE90223DDE90401A0FB029BE8
:1009D000DDE90001A0EB09003030C0B23A2803D3B2
:1009E0009DF818105139081808F80700DDE9029B36
:1009F000BBF1000F08BFB9F1000F03D0E868E1199F
:100A00008842CFD3082E09D195F83800000705D5C4
:100A1000E05D302802D0641E3020E055C4F13C0077
:100A2000A861E119E960296B884207DA081A28628F
:100A3000288F4FF6EF710840288710E000290ED567
:100A400095F8381001F01401102908D1696B6A6912
:100A5000891A2A6A891A0C1A012CA8BF2C6208B0BC
:100A6000BDE8F08B2DE9F24F8CB0054602AFD5E919
:100A70000089286B002848BF062005D404BF41F038
:100A80002000672801D101202863C9F30A5040F2F1
:100A9000FF7398421DD15FEA093008BFB8F1000F1B
:100AA00009D10320A8619DF8300061381A2857D376
:100AB0000FF2BC4108E00320A8619DF830006138C6
:100AC0001A284AD30FF2A0410322E86800F030FB55
:100AD00000E1010008D1284600F065FB0128A4BF11
:100AE0000023002680F2ED8040F2FE316A6861F357
:100AF0001E526A60461A404649460022002300F012
:100B000075FB38BF89F0004936B247F29750704301
:100B1000724990FBF1F636B2C6F107077049012F12
:100B200021DBC246CB4690468946F80707D550469A
:100B3000594642464B4600F071FB82468B467F1079
:100B40004046494642464B4600F068FB804689468F
:100B5000002FEAD1D046D94629E00FF20841B3E789
:100B60000FF20841B0E77F429246DFF878B1CDE955
:100B7000002114D0F80707D550465946DDE9002377
:100B800000F04CFB82468B467F10DDE90001DDE979
:100B9000002300F043FBCDE90001002FEAD14046DD
:100BA000494652465B4600F00BFC804689469DF85C
:100BB000300040F0200ABAF1660F0CBF06F10A00BF
:100BC0000620296B4418142CA8BF132430208DF85C
:100BD00008000DF10907012C34DB4046494600F0BE
:100BE00013FD014607F1080204234FF00A0CB1FB84
:100BF000FCF707EB870BA1EB4B01303102F8011D2D
:100C0000B7FBFCFC61460CEB8C0EA7EB4E073037B4
:100C100002F8017D5B1EE8D102F10807083C012CB7
:100C2000D9DB00F007FD02460B464046494600F07E
:100C30000FFD02460B4600202B4900F0EFFA8046DC
:100C40008946CAE70DF10900381A0DF109079DF828
:100C50000910302905D1401E761E17F8011F3029D2
:100C6000F9D0BAF1660F04BF36B2711C04D0BAF1E4
:100C7000650F0CBF012100212A6B8B181BB2984213
:100C8000B8BF03461BB2002B1BD41946814204DABD
:100C9000C85D352828BF392000D23020CA19521E1D
:100CA00000E05B1E491E12F801498442F9D0392840
:100CB00002D1C85D401CC855002902D57F1E5B1CAF
:100CC000761C36B200961BB23A469DF83010284684
:100CD00000F00CF80DB0BDE8F08F0000A086010018
:100CE000000024400000F03F84D797412DE9F047F1
:100CF00086B006468A4690461C46BDF9385000F03C
:100D000084FD406A90F80090376B012C02DA0124D0
:100D10000FF260284AF02000662808D0672840F0CB
:100D20008C806FF003018D4276DBBD4274DA6D1C5E
:100D300066280AD096F83800000702D4BC42B8BF33
:100D400027462DB27F1B48BF0027F068B1692DB23E
:100D5000012D21DA4A1C30230B54012F03DA96F8B7
:100D60003810090702D502F80090521CB261EF4218
:100D7000B8BF7D422DB269427162EF19A742B8BF78
:100D80003C4624B2F46122464146B369181800F08B
:100D9000CFF9381BB062B3E00818AC4216DA22462D
:100DA000414600F0C5F9B1696118B161281B706254
:100DB000012F03DA96F83800000705D5F06801F82E
:100DC0000090F069401CF061B76299E02A46414604
:100DD00000F0AEF9B0692818B061641B012F03DA86
:100DE00096F83810090704D5411CB161F16800F884
:100DF000019024B2A742B8BF3C4624B2224605EB7C
:100E00000801B069F368C01800F092F9B0692018C1
:100E1000B061381B706273E0BC4204DA96F8381097
:100E2000090758BF27467F1E48BF0027BAF1670F42
:100E30000CBF4FF0650A4FF0450AB1694A1CF068D3
:100E400018F8013B0B54012F03DA96F83810090704
:100E500002D502F80090521CB261012F10DB641E13
:100E600024B2A742B8BF3C4624B222464146B369E9
:100E7000181800F05DF9B0692018B061381B706275
:100E8000B069F16800EB010808F801AB002D5CBF08
:100E90002B2008F8010B03D52D2008F8010B6D421B
:100EA000002402AF2DB2012D0EDB0A22294600A834
:100EB00000F0C4FC019807F8010B009D641C2DB2E2
:100EC000012DF2DA022C06DA4AF02000652804BF70
:100ED000302008F8010B1CB9302008F8010B09E09C
:100EE000012C07DB641E02A8205C303008F8010BDF
:100EF000012CF7DAB069F1684018A8EB0000F06146
:100F000096F8380000F0140010280DD17069B1690E
:100F10000818716A0818F1690818B16A0818716B25
:100F20008842BCBF081A306206B0BDE8F087F8B549
:100F300004460D4616461F46002077B116F8011BE1
:100F4000A868A047A86030B1E86A401CE8620020A9
:100F50007F1EF3D1F2BD4FF0FF30F2BD686A6C74B2
:100F60007A4C00006E616E004E414E00696E660064
:100F7000494E4600300050F8041B61B150F8042B74
:100F8000D30744BFA9F101039A18002342F8043B98
:100F9000091FFAD1EFE770470278C9B28A421AB145
:100FA0001CBF10F8012FF9E718BF002070470000A0
:100FB00000F10103810704D010F8011B89B18107FA
:100FC000FAD10268B2F10131914311F0803F04BFC0
:100FD00050F8042FF6E710F8011B11B110F8011BAF
:100FE000FBE7C01A70470000C9B2830706D0521E43
:100FF00022D310F8013B9942F7D11FE0083A13D3EE
:1010000002F1040241EA012141EA014150F8043BA6
:10101000121F21BF4B40A3F1013C2CEA030C1CF032
:10102000803FF3D0C9B2001F083210F8013B521EB6
:1010300028BF91EA030FF8D818BF0120401E70475F
:101040001B4213D1094236D12AB18446B0FBF2F0DB
:1010500002FB10C2704700F0F9BBFCD30022002352
:1010600070470B000200002100207047904271EB96
:10107000030CF6D370B5B1FA81F4B3FA83F52C1BE7
:10108000A340C4F1200532FA05F63343A2405FF0D5
:101090000046E64002E05B085FEA3202841A71EB28
:1010A000030524BF204629467641F4D302000B00F5
:1010B0003000002170BD012ACFD970B5140C20D0AA
:1010C000B1FA81F4B2FA82F5C4F120046419B4F1E2
:1010D0002006D6D3B2405FF00044F440002502E081
:1010E00052085FEA3303C61A71EB020E24BF304682
:1010F000714664416D41F3D302000B0020002900CA
:1011000070BD0C46B1FBF2F102FB11452D0445EA1E
:101110001045B5FBF2F402FB145580B240EA0545D8
:10112000B5FBF2F002FB105240EA044070BD000033
:1011300062B38B0708D0521E11F8013B00F8013B47
:1011400000F024808B07F6D1830740F0208000BF99
:10115000103A07D330B4B1E83810103AA0E838108C
:10116000F9D230BC530724BFB1E80810A0E808103A
:1011700044BF51F8043B40F8043BD20724BF31F888
:10118000022B20F8022B44BF0B7803707047083AFB
:1011900007D3B1E80810083A40F8043B40F804CB04
:1011A000F7D25307E4E730B4416801F0004201216F
:1011B00043681B031B0B436004BF0368002B0ED066
:1011C00003684468DD0F45EA440444605B00036043
:1011D000491EE302F4D543681B031B0B43604368BD
:1011E0001A434260084630BC704700004FF4001CB0
:1011F0001CEB410F94BF1CEB430F09E041EA030CC9
:1012000050EA4C0C52EA0C0C03D2994208BF9042AF
:10121000704714BF8B42824270470000B0B581EA2C
:10122000030C0CF0004C40F2FF7515EA11541DBF81
:1012300015EA1357AC42AF4239E0E41923EA4553AB
:1012400043F48013C90241F0004141EA505EC702F5
:101250001100A7FB020200284FF00000EEFB012066
:101260004FF00001E3FB072118BF42F001024018D4
:1012700000214941E3FB0E01A4F580640F0302D273
:1012800052004041494154F101046CDD470872F1BC
:10129000004250F1000051EB0451A1F580115CBFF8
:1012A00041EA0C01B0BD4CEA05510020B0BD05EA91
:1012B0001357AC4214BFAF4241E050EA410E1CBF8D
:1012C00052EA430E02E061460020B0BD24423C4495
:1012D0001BD15FEA070EF6D0090302BF01460020CA
:1012E000AEF1140EB1FA81F7AEEB070401FA07FE76
:1012F0000C37C7F1200100FA07F7C8404EEA000E8C
:1013000023EA455343F48013A2E733F00043B3FAD2
:1013100083F704BFB2FA82FE77440B3FE41BB7F1B8
:10132000200E2FBF02FA0EF3BB40C7F1200E22FAA7
:101330000EFE38BF43EA0E03BA40641C82E750EA4F
:10134000410E14BF52EA430E6FF000014FF4001734
:1013500017EB430F8ABF194617EB410FB5E74CEA6D
:1013600005510020B0BDD4F10104B4F120070FDA1B
:10137000C4F12007520828BF42F0010210FA07F515
:1013800001FA07F7E1BF2A43E0403843E1400FE0AC
:10139000352C98DCC7F1200452EA400220FA07F20B
:1013A00018BF42F0010231FA07F0A1400A430021C0
:1013B00072F1004250F1000051EB0C01B0BD000091
:1013C000F0B540F2FF7581EA030C0CF0004C15EA11
:1013D00011541DBF15EA1357AC42AF42E5E0BC41C2
:1013E000C1F31301C3F31303801A994143F480132B
:1013F00004D2641E4000494180185941C90241EAA3
:101400005051B1FBF3F603FB1611A2FB0675D7EBA7
:10141000C020A94102D2761E80185941C90241EA72
:101420005051B1FBF3FE03FB1E11A2FB0E75D7EB6F
:10143000C020A94103D2AEF1010E801859418902A2
:1014400041EA9051760546EA8E2EB1FBF3F603FB96
:101450001611A2FB0675D7EB8020A94102D2761E99
:1014600080185941C90241EA50514EEA060EB1FBBB
:10147000F3F603FB1611A2FB0675D7EBC020A941BA
:1014800002D2761E80185941C90241EA5051B1FB7F
:10149000F3F703FB1711A2FB0735D3EBC020A941DB
:1014A00067F100070CBF004247F0010766F3D5273C
:1014B0004FEA1E31B80814F5806412DDBD0775F1DE
:1014C000004250EB0E5051EB045111F5801F5CBFF0
:1014D00041EA0C01F0BD4CF07F6141F0E041002099
:1014E000F0BDBD076D0840EA0E5041F48011D4F103
:1014F0000104B4F120060ADAC4F120060200E0403B
:1015000001FA06F3E1401843B24015430EE0342CD3
:1015100013DCC6F1200445EA40056D0820FA06F206
:10152000154321FA06F0A1400D43002175F1004258
:1015300050F1000051EB0C01F0BD00205FEA0C01FE
:10154000F0BDCFB992185B41B3FA83F704BFB2FA8A
:1015500082F6BF190B3FB7F120062FBF02FA06F340
:10156000BB40C7F1200622FA06F638BF3343BA4023
:101570001CB1E419641E33E77F4231F00041B1FA37
:1015800081F404BFB0FA80F6A4190B3CB4F1200634
:101590002FBF00FA06F1A140C4F1200620FA06F69A
:1015A00038BF3143A0403C1B1AE7AC421ABF05EAE2
:1015B0001357AF4212E050EA41061CBF52EA4306FD
:1015C000BFE750EA4107304661461CBF41EA05517A
:1015D000F0BD52EA430C08BFC143F0BD00204FF4F8
:1015E000001616EB410F98BF16EB430F08BF16EB22
:1015F000410F24BFC14305E016EB430F0CBF61460A
:101600004CEA0551F0BD0000400D40EAC120490000
:1016100080F00D8040F00040490DA1F58061491C2B
:1016200005D4D1F11F0154BFC840C01770474FF017
:1016300000007047010000BF09D0B0FA80F1884077
:10164000C91CC1F58461090501EBD0214005704733
:1016500070B44FF0004591EA030F44BF6B4000F0B7
:10166000F7B800BF841A71EB030604D26E40001B6A
:10167000B141121973414FF4001C1CEB410F34BFF0
:101680007CEB430684E00C0DA4EB1356362E7DDC78
:10169000012E43DC45EAC32343EA525312BFD20270
:1016A00092025B08240545EAC12141EA5051D2EB80
:1016B000C020994125D407D1B0FA80F610FA06F17E
:1016C00064D00020203608E0B1FA81F6B140C6F1BE
:1016D000200220FA02F21143B0404FEAF474B4EB56
:1016E000465434F001064FEA74040AD8D6F50016C1
:1016F000760D04F00044F04061FA06F25040F140EB
:101700004840C00A40EA415021F0004128BF5FEA4A
:10171000500550F1000044EBD12137E045EAC323E6
:10172000DB0A45EAC121C90AB6F120050EDD42EA0D
:101730000242120CC5F1200603FA06F6EB4042EA1B
:1017400006056D42984161F100010DE062FA06F56F
:10175000F240554063FA06FC82EA0C02F3405A401C
:101760006D42904161EB030111F4801F05D1641EAD
:10177000620502D06D004041494121F480114308C7
:1017800075F1004350F1000041EB045170BC70470B
:101790001CEB410F15D223F0004352EA43060BD055
:1017A0004FEA4C0CBCEB410F04D80C0D661E342ED6
:1017B000B7DDEBE7801A994150EA410608BF0021E6
:1017C000E4E708BF1CEB430F28BF6FF00001DDE723
:1017D00080B5134800F0A6F80FF24801016041609F
:1017E0008160C1600161416181610FF23C0242622E
:1017F0008162C162016341630FF2300282630FF2C2
:101800003402C2630164416401BD10B5044800F0B4
:1018100089F80446206808B9FFF7DAFF204610BDB2
:10182000EC11FF1F000000002E00000066616C73C9
:1018300065000000747275650000000091FBF2F312
:1018400003FB1211C0E9003170470000704700002F
:10185000841A71EB030603D2001BB14112197341C4
:101860004FF4001C1CEB410F34BF7CEB430443E0FE
:101870000C0DA4EB1356352E50DC45EAC323DB0ACE
:1018800045EAC121C912B6F120050DDD63FA05F65E
:10189000EB4086EA0305124218BF45F00105C01867
:1018A00051F100010CD213E062FA06F5F240554006
:1018B000F3415A40B340F3405A408018594107D38E
:1018C00049085FEA30005FEA350528BF45F00105A9
:1018D00001F58011420875F1004250F1000041EB22
:1018E000045170BC4FF4001C1CEB410F38BF704713
:1018F0000020090D090570471CEB410F10D252EA78
:1019000043060BD0BCEB410F05D80C0DAB43661E54
:10191000342EB5DD02E0AB438018594170BC7047EE
:1019200070BC7047704700004001F00001000000EB
:1019300034353637000000000000000000000000D1
:101940000000000000000000000000000000000097
:1019500000004E6F6E4D61736B61626C650000003C
:1019600000486172644661756C74000000000000FC
:101970004D656D4D616E6167656D656E7400004209
:1019800075734661756C74000000000000005573AB
:101990006167654661756C7400000000000000001E
:1019A0000000000000000000000000000000000037
:1019B0000000000000000000000000000000000027
:1019C0000000000000000000000000000000000017
:1019D000000000000000000000535643616C6C00E2
:1019E000000000000000000044656275674D6F6EE6
:1019F00069746F7200000000000000000000000029
:101A000000000000000050656E64535600000000A6
:101A100000000000005379735469636B00000000FC
:101A200000000000444D41300000000000000000B4
:101A3000000000444D4131000000000000000000A3
:101A40000000444D41320000000000000000000092
:101A500000444D4133000000000000000000000081
:101A6000444D41340000000000000000000000442C
:101A70004D41350000000000000000000000444D12
:101A800041360000000000000000000000444D410D
:101A9000370000000000000000000000444D413805
:101AA0000000000000000000000000444D4139002B
:101AB00000000000000000000000444D41313000F3
:101AC000000000000000000000444D4131310000E2
:101AD0000000000000000000444D413132000000D1
:101AE00000000000000000444D41313300000000C0
:101AF000000000000000444D4131340000000000AF
:101B00000000000000444D4131350000000000009D
:101B100000000000444D415F4572726F720000008A
:101B20000000004D434D00000000000000000000D8
:101B300000004654464C0000000000000000000079
:101B400000526561645F436F6C6C6973696F6E000E
:101B50004C56445F4C565700000000000000004CFB
:101B60004C5700000000000000000000000057611A
:101B7000746368646F6700000000000000524E4705
:101B80000000000000000000000000004932433067
:101B90000000000000000000000000493243310056
:101BA0000000000000000000000053504930000019
:101BB0000000000000000000005350493100000008
:101BC00000000000000000005350493200000000F7
:101BD0000000000000000043414E305F4F525F4D57
:101BE000425F6275660043414E305F4275735F4FDE
:101BF000666600000043414E305F4572726F7200AE
:101C00000000000043414E305F54785F5761726EB0
:101C1000696E6743414E305F52785F5761726E69FB
:101C20006E6743414E305F57616B655F55700000D2
:101C300000526573657276656435310000000000FE
:101C400052657365727665643532000000000043AA
:101C5000414E315F4F525F4D425F627566004341B6
:101C60004E315F4275735F4F666600000043414E20
:101C7000315F4572726F72000000000043414E31C7
:101C80005F54785F5761726E696E6743414E315F92
:101C900052785F5761726E696E6743414E315F578C
:101CA000616B655F55700000005265736572766503
:101CB0006435390000000000526573657276656412
:101CC0003630000000000055415254305F52585FDA
:101CD00054580000000055415254305F45525200A4
:101CE000000000000055415254315F52585F545873
:101CF0000000000055415254315F4552520000002F
:101D000000000055415254325F52585F5458000051
:101D1000000055415254325F45525200000000000D
:101D20000055415254335F52585F54580000000030
:101D300055415254335F4552520000000000005597
:101D4000415254345F52585F5458000000005541CE
:101D50005254345F45525200000000000055415279
:101D600054355F52585F545800000000554152549A
:101D7000355F4552520000000000004144433000EE
:101D8000000000000000000000004144433100005A
:101D9000000000000000000000434D503000000033
:101DA0000000000000000000434D50310000000022
:101DB00000000000000000434D5032000000000011
:101DC00000000000000046544D30000000000000FC
:101DD000000000000046544D3100000000000000EB
:101DE0000000000046544D320000000000000000DA
:101DF000000000434D5400000000000000000000FF
:101E000000005254430000000000000000000000E9
:101E10000052657365727665643833000000000017
:101E20005049543000000000000000000000005045
:101E3000495431000000000000000000000050493B
:101E4000543200000000000000000000005049541F
:101E50003300000000000000000000005044423049
:101E60000000000000000000000000555342300058
:101E700000000000000000000000555342444344AD
:101E8000000000000000000000454E45545F313561
:101E900038385F54696D6572454E45545F547261C0
:101EA0006E736D69740000454E45545F52656365FD
:101EB000697665000000454E45545F4572726F7249
:101EC0000000000000493253300000000000000014
:101ED00000000000534448430000000000000000E0
:101EE00000000044414330000000000000000000FA
:101EF00000004441433100000000000000000000E9
:101F000000545349300000000000000000000000B1
:101F10004D43470000000000000000000000004C9E
:101F20005054696D657200000000000000005265A9
:101F300073657276656431303200000000504F5294
:101F4000544100000000000000000000504F5254B7
:101F50004200000000000000000000504F525443B7
:101F600000000000000000000000504F52544400E8
:101F7000000000000000000000504F5254450000D7
:101F80000000000000000000526573657276656411
:101F90003130380000000052657365727665643137
:101FA0003039000000005265736572766564313126
:101FB000300000000052657365727665643131311E
:101FC000000000005265736572766564313132003D
:101FD000000000526573657276656431313300002C
:101FE000000052657365727665643131340000001B
:101FF000005265736572766564313135000000000A
:1020000052657365727665643131360000000052A6
:102010006573657276656431313700000000526582
:102020007365727665643131380000000052657363
:1020300065727665643131390000000001008688E0
:10204000878908096A6E6B6C676D4E4F00B003405C
:1020500000B00B40008003400090034000800B4024
:1020600000F00F4040F00F4080F00F40C0F00F40F4
:1020700000F10F40F0000A1D300018003200180176
:10208000600018186400181A6E00181F78001318E2
:102090007D00131A8200131C8C000E1296000E1580
:1020A000A0000E18AA000E1BB4000E1EC8000C1CC7
:1020B000E1000B1EFA000A1F00010908009004400D
:1020C00000A0044000B0044000C0044000D0044020
:1020D00000A0064000B0064000C0064000D0064008
:1020E00000A00E4000B00E400A0A03000000C03FEE
:1020F0000C000000020401019811FF1FE811FF1FEE
:102100009811FF1F9811FF1F9811FF1F190CFF1F37
:10211000000CFF1F00000000000000000000000095
:1021200000000000000000000000000000000000AF
:10213000000000000000000000000000000000009F
:10214000000000000000183C3C3C1818180018184B
:102150000000000000666666240000000000000029
:10216000000000000000006C6CFE6C6C6CFE6C6C7F
:102170000000000018187CC6C2C07C0686C67C1809
:102180001800000000000000C2C60C183060C686AF
:10219000000000000000386C6C3876DCCCCCCC76CB
:1021A000000000000030303060000000000000003F
:1021B0000000000000000C18303030303030180CB7
:1021C00000000000000030180C0C0C0C0C0C183037
:1021D000000000000000000000663CFF3C660000BC
:1021E00000000000000000000018187E1818000011
:1021F0000000000000000000000000000018181897
:102200003000000000000000000000FE00000000A0
:10221000000000000000000000000000000018188E
:10222000000000000000000002060C183060C080B2
:102230000000000000007CC6C6CED6D6E6C6C67C2E
:102240000000000000001838781818181818187EB8
:102250000000000000007CC6060C183060C0C6FEFE
:102260000000000000007CC606063C060606C67C90
:102270000000000000000C1C3C6CCCFE0C0C0C1E82
:10228000000000000000FEC0C0C0FC0E0606C67CB8
:102290000000000000003860C0C0FCC6C6C6C67C96
:1022A000000000000000FEC606060C18303030307A
:1022B0000000000000007CC6C6C67CC6C6C6C67C40
:1022C0000000000000007CC6C6C67E0606060C782C
:1022D000000000000000000018180000001818009E
:1022E000000000000000000018180000001818305E
:1022F00000000000000000060C18306030180C06CA
:1023000000000000000000000000FE0000FE0000D1
:10231000000000000000006030180C060C1830604F
:102320000000000000007CC6C60C18181800181821
:10233000000000000000007CC6C6DEDEDEDCC07CE3
:1023400000000000000010386CC6C6FEC6C6C6C637
:10235000000000000000FC6666667C66666666FC3F
:102360000000000000003C66C2C0C0C0C0C2663CA5
:10237000000000000000F86C6666666666666CF831
:10238000000000000000FE6662687868606266FE19
:10239000000000000000FE6662687868606060F01F
:1023A0000000000000003C66C2C0C0DEC6C6663A3F
:1023B000000000000000C6C6C6C6FEC6C6C6C6C629
:1023C0000000000000003C18181818181818183CD5
:1023D0000000000000001E0C0C0C0C0CCCCCCC78C7
:1023E000000000000000E6666C6C78786C6666E6BB
:1023F000000000000000F06060606060606266FEE7
:10240000000000000000C6EEFEFED6C6C6C6C6C668
:10241000000000000000C6E6F6FEDECEC6C6C6C658
:10242000000000000000386CC6C6C6C6C6C66C38C0
:10243000000000000000FC6666667C60606060F082
:102440000000000000007CC6C6C6C6C6C6D6DE7C3C
:102450000C0E00000000FC6666667C6C666666E634
:102460000000000000007CC6C660380C06C6C67CB2
:102470000000000000007E7E5A1818181818183C3A
:10248000000000000000C6C6C6C6C6C6C6C6C67CDA
:10249000000000000000C6C6C6C6C6C6C66C38101E
:1024A000000000000000C6C6C6C6C6D6D6FE6C6CCC
:1024B000000000000000C6C66C6C38386C6CC6C6E4
:1024C000000000000000666666663C181818183C9C
:1024D000000000000000FEC6860C183060C2C6FE78
:1024E0000000000000003C30303030303030303CF4
:1024F0000000000000000080C0E070381C0E0602E2
:102500000000000000003C0C0C0C0C0C0C0C0C3CF3
:102510000000000010386CC6000000000000000041
:1025200000000000000000000000000000000000AB
:1025300000FF000030301800000000000000000024
:10254000000000000000000000780C7CCCCCCC76B1
:10255000000000000000E06060786C66666666DC83
:102560000000000000000000007CC6C0C0C0C67CA7
:102570000000000000001C0C0C3C6CCCCCCCCC76D9
:102580000000000000000000007CC6FEC0C0C67C49
:10259000000000000000386C6460F060606060F073
:1025A00000000000000000000076CCCCCCCCCC7C3D
:1025B0000CCC78000000E060606C7666666666E6CB
:1025C0000000000000001818003818181818183CEF
:1025D0000000000000000606000E060606060606BD
:1025E00066663C000000E06060666C78786C66E6C9
:1025F0000000000000003818181818181818183CA7
:10260000000000000000000000ECFED6D6D6D6D6B2
:10261000000000000000000000DC6666666666667A
:102620000000000000000000007CC6C6C6C6C67CD4
:10263000000000000000000000DC66666666667C44
:102640006060F000000000000076CCCCCCCCCC7CEC
:102650000C0C1E000000000000DC7662606060F080
:102660000000000000000000007CC660380CC67C42
:10267000000000000000103030FC30303030361CDC
:10268000000000000000000000CCCCCCCCCCCC760C
:1026900000000000000000000066666666663C18E8
:1026A000000000000000000000C6C6C6D6D6FE6CC2
:1026B000000000000000000000C66C3838386CC60E
:1026C000000000000000000000C6C6C6C6C6C67EE8
:1026D000060CF8000000000000FECC183060C6FEBA
:1026E0000000000000000E18181870181818180EB6
:1026F0000000000000001818181800181818181802
:10270000000000000000701818180E181818187033
:1027100000000000000076DC000000000000000067
:10272000000000000000000010386CC6C6C6FE00A5
:102730000000000080B500220121282000F0EEFA00
:10274000002201214D2000F0E9FA012000F0E4FB15
:10275000DFF8B8050121016000F0EAFB642000F019
:10276000DBFB5FF0C040CF2101805FF0D040002153
:1027700001805FF0D040812101805FF0D0403021A6
:102780000180642000F0C8FB5FF0C040ED210180B3
:102790005FF0D040642101805FF0D04003210180D0
:1027A0005FF0D040122101805FF0D0408121018094
:1027B000642000F0B1FB5FF0C040E82101805FF0D1
:1027C000D040852101805FF0D040102101805FF072
:1027D000D04078210180642000F09EFB5FF0C04073
:1027E000CB2101805FF0D040392101805FF0D040E3
:1027F0002C2101805FF0D040002101805FF0D040AB
:10280000342101805FF0D04002210180642000F07B
:1028100083FB5FF0C040F72101805FF0D0402021B2
:102820000180642000F078FB5FF0C040EA21018065
:102830005FF0D040002101805FF0D0400021018096
:10284000642000F069FB5FF0C040B12101805FF0BF
:10285000D040002101805FF0D0401B210180642026
:1028600000F05AFB5FF0C040B62101805FF0D0401D
:102870000A2101805FF0D040A2210180642000F095
:102880004BFB5FF0C040C02101805FF0D04035219C
:102890000180642000F040FB5FF0C040C121018056
:1028A0005FF0D040112101805FF0C040C521018060
:1028B0005FF0D040452101805FF0D040452101808C
:1028C0005FF0C040C72101805FF0D040A2210180AD
:1028D0005FF0C040F22101805FF0D0400021018014
:1028E0005FF0C040262101805FF0D04001210180CF
:1028F000642000F011FB5FF0C040E02101805FF038
:10290000D0400F2101805FF0D040262101805FF090
:10291000D040242101805FF0D0400B2101805FF086
:10292000D0400E2101805FF0D040092101805FF08E
:10293000D040542101805FF0D040A82101805FF099
:10294000D040462101805FF0D0400C2101805FF033
:10295000D040172101805FF0D040092101805FF055
:10296000D0400F2101805FF0D040072101805FF04F
:10297000D040002101805FF0C040E12101805FF084
:10298000D040002101805FF0D040192101805FF02C
:10299000D0401B2101805FF0D040042101805FF016
:1029A000D040102101805FF0D040072101805FF00E
:1029B000D0402A2101805FF0D040472101805FF0A4
:1029C000D040392101805FF0D040032101805FF0C9
:1029D000D040062101805FF0D040062101805FF0E9
:1029E000D040302101805FF0D040382101805FF07D
:1029F000D0400F210180642000F08EFA642000F0A6
:102A00008BFA5FF0C0403A2101805FF0D040552141
:102A100001805FF0C04011210180642000F07CFA49
:102A20005FF0C04029210180B948007800F005F826
:102A30005FF0C0402C21018001BDC0B20422010022
:102A400091FBF2F000FB1210B1490870C0B20028EF
:102A500006D0022874D03BD3032800F0A980DFE021
:102A60005FF0C04136220A805FF0D041A8220A8080
:102A70005FF0C0412A220A805FF0D04100220A8024
:102A80005FF0D04100220A805FF0D04101220A802D
:102A90005FF0D0413F220A805FF0C0412B220A80C4
:102AA0005FF0D04100220A805FF0D04100220A800E
:102AB0005FF0D04100220A805FF0D041EF220A800F
:102AC0009449F0220A8094494FF4A0720A80A7E04A
:102AD0005FF0C04136220A805FF0D041D8220A80E0
:102AE0005FF0C0412A220A805FF0D04100220A80B4
:102AF0005FF0D04100220A805FF0D04100220A80BE
:102B00005FF0D041EF220A805FF0C0412B220A80A3
:102B10005FF0D04100220A805FF0D04100220A809D
:102B20005FF0D04101220A805FF0D0413F220A804D
:102B300078494FF4A0720A807749F0220A806FE04A
:102B40005FF0C04136220A805FF0D04168220A80DF
:102B50005FF0C0412A220A805FF0D04100220A8043
:102B60005FF0D04100220A805FF0D04101220A804C
:102B70005FF0D0413F220A805FF0C0412B220A80E3
:102B80005FF0D04100220A805FF0D04100220A802D
:102B90005FF0D04100220A805FF0D041EF220A802E
:102BA0005C49F0220A805C494FF4A0720A8037E049
:102BB0005FF0C04136220A805FF0D04118220A80BF
:102BC0005FF0C0412A220A805FF0D04100220A80D3
:102BD0005FF0D04100220A805FF0D04100220A80DD
:102BE0005FF0D041EF220A805FF0C0412B220A80C3
:102BF0005FF0D04100220A805FF0D04100220A80BD
:102C00005FF0D04101220A805FF0D0413F220A806C
:102C100040494FF4A0720A803F49F0220A80FFE742
:102C2000704703B45FF0C0402A210180BDF8000066
:102C300080B2000A5FF0D0410880BDF80000BDF806
:102C4000001089B2090A89B2B0EB01205FF0D041CF
:102C50000880BDF80000BDF8041011FA80F0401E95
:102C600000125FF0D0410880BDF80000BDF80410EC
:102C70000818401EBDF80010BDF804205118491E68
:102C800011F47F41401A5FF0D04108805FF0C040EE
:102C90002B210180BDF8020080B2000A5FF0D04114
:102CA0000880BDF80200BDF8021089B2090A89B295
:102CB000B0EB01205FF0D0410880BDF80200BDF804
:102CC000061011FA80F0401E00125FF0D04108801B
:102CD000BDF80200BDF806100818401EBDF802102D
:102CE000BDF806205118491E11F47F41401A5FF0CB
:102CF000D04108805FF0C0402C21018002B07047B5
:102D00000448008870470448008870473410FE4328
:102D10001404FF1F1004FF1F1204FF1F70B50400EE
:102D20000D0016004FF480712000C0B200F08AF947
:102D30006DB2002D11D1E4B260115D4951F820004F
:102D4000E4B261115A4A52F821104969012214F083
:102D50001F039A409143416136E0E4B26011544947
:102D600051F82000E4B26111514A52F8211049692A
:102D7000012214F01F039A4011434161F6B2002E64
:102D800011D1E4B260114A4951F8200000680121D4
:102D900014F01F0291408843E4B26111444A52F892
:102DA0002110086010E0E4B26011414951F82000A0
:102DB0000068012114F01F0291400843E4B2611140
:102DC0003B4A52F82110086070BD38B504000D0070
:102DD000E4B26011364951F82000406914F01F0137
:102DE000C840C00703D46321324800F098F9EDB21F
:102DF000002D11D1E4B260112D4951F82000006876
:102E0000012114F01F0291408843E4B26111284A65
:102E100052F82110086010E0E4B26011244951F822
:102E200020000068012114F01F0291400843E4B221
:102E300061111F4A52F82110086031BD10B504001D
:102E4000E4B260111A4951F82000406914F01F01E2
:102E5000C840C00703D47B21164800F060F9E4B2F3
:102E60006011134951F82000012114F01F02914014
:102E7000C16010BD10B50400E4B260110C4951F8F6
:102E80002000406914F01F01C840C00703D58C2101
:102E9000084800F044F9E4B26011054951F82000F7
:102EA000006914F01F01C84010F0010010BD0000BF
:102EB000480BFF1F5C52000030B4134C246854F0E0
:102EC0008074114D2C60114C246854F001040F4D96
:102ED0002C600F4C246821000E4C24684FF47A7546
:102EE00094FBF5F404FB00F423005C1822008A42F2
:102EF00003D2074C2468A242FBD3054C24689442B9
:102F0000FBD330BC70470000FCED00E0001000E097
:102F1000041000E08C11FF1F10B504002000441EB7
:102F2000002804D04FF47A70FFF7C6FFF6E710BD13
:102F300080B53E4800684FF4407108433B49086043
:102F40003B48006850F00100394908604FF4A8611F
:102F5000662000F077F84FF4A861652000F072F861
:102F60004FF4A861642000F06DF84FF4A86163206D
:102F700000F068F84FF4A861622000F063F84FF4A5
:102F8000A8614A2000F05EF84FF4A861492000F0E3
:102F900059F84FF4A861482000F054F84FF4A861A4
:102FA000472000F04FF84FF4A861462000F04AF89F
:102FB0004FF4A861452000F045F84FF4A861442083
:102FC00000F040F84FF4A861422000F03BF84FF4C5
:102FD000A861412000F036F84FF4A861402000F0CD
:102FE00031F84FF4A861322000F02CF84FF4A861BA
:102FF000332000F027F84FF4A861612000F022F898
:103000004FF4A8614B2000F01DF84FF4A8614C204C
:1030100000F018F807485FF0C04101600648074912
:10302000016007484FF46071016001BD04800440F5
:103030004080044000C0004004C00040010000087F
:1030400008C0004010B4294A12684FF40073C0B29F
:103050004409A3401A43254B1A60C0B24211244BC5
:1030600053F82220012310F01F04A340C2F8A0301F
:10307000C0B210F01F02C0B243111D4C54F82330EF
:1030800043F8221010BC704710B4184A12684FF46D
:103090000073C0B24409A3401A43144B1A60C0B273
:1030A0004211134B53F82220012310F01F04A340B8
:1030B000C2F8A03031F4E061C0B210F01F02C0B21B
:1030C00043110B4C54F8233053F8222012F4E062E1
:1030D0001143C0B210F01F02C0B24311044C54F8A7
:1030E000233043F8221010BC7047000038800440A1
:1030F000A40BFF1FDFF800F0450CFF1FDFF800F006
:103100006D0CFF1FBFF34F8F3C48006810F4E06068
:103110003B49084339490860BFF34F8FFEE738B594
:1031200004000D002A002100364800F077F8FEE781
:1031300038B504000D00210049B2032000F089F9E0
:10314000200032BD10B50024042000F09BF90420BB
:1031500000F0CEF9002841D1002000F0E1F9042070
:1031600000F0C6F9012801D101200400002000F080
:10317000F4F9254800F052F84FF4FA70FFF7CCFE4E
:10318000E4B2012CEBD1042000F0B2F90028E6D122
:10319000042000F0ADF9002806D1002000F0DDF990
:1031A0006420FFF7B9FEF3E7042000F0A1F901283D
:1031B00006D1002000F0D1F93220FFF7ADFEF3E791
:1031C000124800F02BF8FFF795FF6420FFF7A4FEEC
:1031D0000020FFF793FFFFF795FFC0E710BD10B584
:1031E0000B480478E4B20F200A4900FB0412E4B251
:1031F0002100094800F012F810BD00000CED00E0BD
:103200000400FA05A453000054540000D8530000F1
:1032100004ED00E01C04FF1F3C5300000EB400B599
:1032200082B003A9009100AB024601210348784413
:103230000A30FDF7F1F806BC5DF810FBF52100003F
:103240002DE9F84304000D0064B2002C08D0022CD4
:103250002CD018D3042C4FD03BD3052C5FD071E079
:10326000DFF80802006850F48060DFF800120860A0
:103270004FF440716620FFF7E5FE4FF44071672080
:10328000FFF7E0FE5EE0DFF8E401006850F4006064
:10329000DFF8D81108604FF440714320FFF7D2FEE9
:1032A0004FF440714420FFF7CDFE4BE0DFF8BC0146
:1032B000006850F48050DFF8B41108604FF440719A
:1032C0006320FFF7BFFE4FF440716220FFF7BAFEA4
:1032D00038E0DFF89801006850F40050DFF88C11F6
:1032E00008604FF440715020FFF7ACFE4FF440717E
:1032F0005120FFF7A7FE25E0DFF87401006850F4C5
:103300008060DFF86C1108604FF440714E20FFF7C9
:1033100099FE4FF440714F20FFF794FE12E0DFF862
:103320005001006850F40060DFF8441108604FF469
:1033300040718920FFF786FE4FF440718820FFF727
:1033400081FEFFE764B2DFF82C0150F82400C0785A
:1033500010F0F30064B2DFF81C1151F82410C870AB
:1033600064B2444850F8240064B2424951F8241031
:103370008978817064B2002C02D064B2012C06D12D
:103380003D4800684FF47A714843814605E03B4868
:1033900000684FF47A71484381462801B9FBF0F088
:1033A0000600B6B2B6F5005F02D341F6FF70060024
:1033B000B9FBF5F0B6B2B0EB06100700BFB2202F94
:1033C00004D340F203112E48FFF7A9FE64B2294846
:1033D00050F82400007810F0E0008046B6B2300AC1
:1033E00010F01F0050EA080064B2224951F824107E
:1033F000087064B21F4850F82400467064B21D483B
:1034000050F82400807A10F0E000804664B2194839
:1034100050F8240017F01F0151EA0801817264B2CC
:10342000144850F82400007C50F0880064B2114920
:1034300051F82410087464B20E4850F82400C07883
:1034400050F00C0064B20B4951F82410C870BDE86C
:10345000F18340B2074A52F8202012791206F8D5BB
:1034600040B2044A52F82020D171704734800440A1
:1034700028800440B80BFF1F8C11FF1F9411FF1F01
:10348000A852000010B5040064B2082C0DDA002226
:10349000002164B22148205CFFF740FC032164B2A4
:1034A0001E48205CFFF7F0FD14E008200400200017
:1034B000441E40B200280DD00022002164B21748FB
:1034C000205CFFF72BFC032164B21448205CFFF75B
:1034D000DBFDECE710BD10B5040064B20F48205CC2
:1034E000FFF7C8FC002801D1002000E0012010BD3A
:1034F00010B50400200040B2FFF7EDFF00280AD10C
:103500000A20FFF709FD200040B2FFF7E4FF002882
:1035100001D1002000E0012010BD00002C0BFF1F96
:1035200010B5040064B2042C07DA0122012164B250
:103530000E48205CFFF7F2FB0EE0042004002000A0
:10354000441E40B2002807D00122012164B207487E
:10355000205CFFF7E3FBF2E710BD10B5040064B296
:103560000248205CFFF76AFC10BD00001804FF1F32
:1035700038B504000D0064B2002C03D0022C66D0D4
:1035800049D380E0DFF8D403006850F08070DFF8A2
:10359000CC1308606DB2002D0BD0022D15D00ED3C8
:1035A000042D1ED017D3062D27D020D3072D2AD0C7
:1035B0002FE04FF480614120FFF744FD2AE04FF4F3
:1035C00040710420FFF73EFD24E04FF440710520D8
:1035D000FFF738FD1EE04FF440710620FFF732FD83
:1035E00018E04FF440710720FFF72CFD12E04FF474
:1035F00080616520FFF726FD0CE04FF480616620B6
:10360000FFF720FD06E04FF480616720FFF71AFD09
:1036100000E038E037E0DFF84403006850F0007065
:10362000DFF8381308606DB2002D02D0012D06D0EE
:103630000BE04FF440710C20FFF704FD06E04FF45F
:1036400040710D20FFF7FEFC00E01CE01BE0DFF8FE
:103650001003006850F08070DFF8041308606DB24A
:10366000002D02D0012D06D00BE04FF440710A204E
:10367000FFF7E8FC06E04FF440710B20FFF7E2FC97
:1036800000E000E0FFE731BD2DE9F84F04000D0038
:1036900016001F0064B2002C0DD064B2012C02D0C1
:1036A00064B2022C02D16DB2022D04DBFC21DFF8E2
:1036B000B402FFF734FD290049B2200040B2FFF701
:1036C00057FFDFF8A40200684FF47A714843804640
:1036D0005FEA1840B0FBF6F08146002082461FFAF0
:1036E00089F959FA0AF0012802DB1AF1010AF6E712
:1036F0005FFA8AFABAF1080F05D340F21711DFF822
:103700006402FFF70CFD38FA0AF0B0FBF6F08146D0
:1037100064B2002C03D0022C18D00BD321E01FFA86
:1037200089F919F1010000FB07F06421B0FBF1F009
:10373000834616E01FFA89F919F1010000FB07F032
:1037400042F21071B0FBF1F083460AE01FFA89F9EA
:1037500019F1010000FB07F06421B0FBF1F0834692
:10376000FFE76DB264B2DFF8040250F8240010EBFA
:10377000C5006DB264B2DFF8F41151F8241011EBFA
:10378000C501C96831F00401C1606DB264B2DFF8EF
:10379000DC0150F8240010EBC5002821C16064B2A0
:1037A000DFF8C80150F824005FFA8AFA1AF007011E
:1037B00051F00801016064B2DFF8B00150F8240054
:1037C0001FFA89F9C0F8089064B2DFF8A00150F838
:1037D00024000021C1646DB264B2DFF8900150F89A
:1037E000240010EBC5001FFA8BFBC0F810B064B2C8
:1037F000DFF8780150F8240000214160BDE8F18F26
:1038000010B5040064B2012C07D064B2022C04D0BD
:1038100040F21D215348FFF782FC64B220000128CA
:1038200002D0022811D021E04C48006850F000700E
:103830004A4908604FF4E0610C20FFF703FC4FF4A5
:10384000E0610D20FFF7FEFB15E04548006850F0F1
:103850008070434908604FF4C0610A20FFF7F2FB13
:103860004FF4C0610B20FFF7EDFB04E040F265214F
:103870003C48FFF754FC64B23C4850F82400406DCB
:1038800050F0040064B2394951F82410486564B21C
:10389000364850F82400D0F8800050F0080064B298
:1038A000324951F82410C1F8800064B22F4850F812
:1038B00024000021C16464B22C4850F824004FF663
:1038C000FF71816064B2294850F82400D0F880006C
:1038D00050F0010064B2254951F82410C1F880006D
:1038E00064B2224850F82400406D50F0010064B2E8
:1038F0001E4951F82410486564B21C4850F8240051
:103900000021416010BD38B5040064B2012C07D01D
:1039100064B2022C04D040F282211248FFF7FFFB70
:1039200064B2124850F8240040680500280000B234
:1039300032BD10B5040064B2012C07D064B2022C71
:1039400004D04FF424710748FFF7E9FB64B207483D
:1039500050F824000021416010BD00003C8004406C
:1039600030800440105200009411FF1F3C0BFF1FD9
:10397000DFF800F0850DFF1F40B2DFF8C81331F803
:10398000201040B20128C0F2838140B2112880F299
:103990007F81DFF8B4230023137089B2652904D234
:1039A000DFF8A4230023537088E089B2C92904D228
:1039B000DFF894230123537080E040F22D1289B286
:1039C000914204D2DFF880230223537076E040F264
:1039D000911289B2914204D2DFF86C230323537011
:1039E0006CE040F2F51289B2914204D2DFF858231C
:1039F0000423537062E040F2592289B2914204D20A
:103A0000DFF844230523537058E040F2BD2289B209
:103A1000914204D2DFF83023062353704EE040F287
:103A2000213289B2914204D2DFF81C23072353705C
:103A300044E040F2853289B2914204D2DFF8082393
:103A4000082353703AE040F2E93289B2914204D23D
:103A5000DFF8F4220923537030E040F24D4289B27E
:103A6000914204D2DFF8E0220A23537026E040F2AC
:103A7000B14289B2914203D2B34A0B2353701DE085
:103A800040F2155289B2914203D2AF4A0C235370CF
:103A900014E040F2795289B2914203D2AA4A0D232E
:103AA00053700BE040F2DD5289B2914203D2A64A34
:103AB0000E23537002E0A44A0F23537089B21A29CF
:103AC00003D2A14A002393706DE089B2332903D257
:103AD0009D4A0123937066E089B24C2903D29A4A29
:103AE000022393705FE089B2652903D2964A0323CB
:103AF000937058E089B27E2903D2934A04239370CD
:103B000051E089B2972903D28F4A052393704AE086
:103B100089B2B02903D28C4A0623937043E089B25C
:103B2000C92903D2884A072393703CE089B2E2296D
:103B300003D2854A0823937035E089B2FB2903D26A
:103B4000814A092393702EE04FF48A7289B2914220
:103B500003D27D4A0A23937025E040F22D1289B2E8
:103B6000914203D2784A0B2393701CE089B2B1F5DD
:103B7000A37F03D2744A0C23937014E040F25F12C7
:103B800089B2914203D2704A0D2393700BE04FF437
:103B9000BC7289B2914203D26B4A0E23937002E049
:103BA000694A0F23937089B21A2903D2664A002307
:103BB000D3706DE089B2332903D2634A0123D370F5
:103BC00066E089B24C2903D25F4A0223D3705FE0DA
:103BD00089B2652903D25C4A0323D37058E089B2C5
:103BE0007E2903D2584A0423D37051E089B2972921
:103BF00003D2554A0523D3704AE089B2B02903D2D3
:103C0000514A0623D37043E089B2C92903D24E4AF0
:103C10000723D3703CE089B2E22903D24A4A082341
:103C2000D37035E089B2FB2903D2474A0923D37008
:103C30002EE04FF48A7289B2914203D2424A0A239B
:103C4000D37025E040F22D1289B2914203D23E4A50
:103C50000B23D3701CE089B2B1F5A37F03D23A4A9B
:103C60000C23D37014E040F25F1289B2914203D268
:103C7000354A0D23D3700BE04FF4BC7289B29142E8
:103C800003D2314A0E23D37002E02F4A0F23D370A0
:103C9000704710B50400200040B2FFF76DFE2B48BE
:103CA000007810F0FD00294908702848007850F08D
:103CB0001000264908702648B82101702548007870
:103CC000C006FBD423480078C0F38100C0B20228AC
:103CD000F8D11D48C3781C4882781B4841781A489F
:103CE0000078FFF745FE64B2164810EB8400807838
:103CF00010F01F001849087064B2124810EB8400DD
:103D0000C07810F01F0050F04000144908701148AE
:103D100000788006FBD50F4800784006FBD50C489C
:103D2000007810F03F000A4908700A480078C0F394
:103D30008100C0B20328F8D164B2024830F82400F0
:103D4000C0B210BD5C0BFF1FA00BFF1F014006405F
:103D5000004006400640064004400640054006403C
:103D600010B582B044480468FEF7E4FCFEF7CBFFD0
:103D7000ADF80000FEF7C4FFADF802004FF4784242
:103D80000099200000F001F813BDF2B50400150001
:103D900000992000FEF745FFBDF80000BDF80210B5
:103DA000484307005FF0C0402C210180002006003E
:103DB000BE4204D25FF0D0400580761CF8E7F1BD2A
:103DC00070B504000D002D48066831002000FEF794
:103DD00028FF5FF0C0402C2101805FF0D0400580BB
:103DE00070BD2DE9F14781B00C0015001E0024487C
:103DF000D0F800A0FEF787FF0838BDF8041088420D
:103E000006DBFEF77DFF1038BDF80610884200DAA9
:103E10002FE051460198FEF704FF5FF0C0402C21CF
:103E20000180002081465FFA89F9B9F1100F20D294
:103E3000E4B2200150FA89F012494018B0F5007040
:103E400000780700002080465FFA88F8B8F1080F74
:103E50000CD2380603D55FF0D040058002E05FF059
:103E6000D04006807F0018F10108EDE719F1010943
:103E7000D9E7BDE8F38700007454000078540000CF
:103E80007C540000342100002DE9F14382B08946C2
:103E900015001E000A9C4F465FF00008BDF80A009E
:103EA000ADF80600B9F1000F1CD123009BB232001F
:103EB00092B230210298FFF794FFBDF80800083055
:103EC000ADF808001020ADF80200EDB2681E80B217
:103ED000C000ADF80000220092B200990298FFF7EE
:103EE00054FF4EE0002F05D00A20B7FBF0F718F181
:103EF0000108F7E75FFA88F8EDB2A84500D3A846B5
:103F00005FFA88F847465FFA88F8B8F1000F1FD0CB
:103F1000BDF808005FFA88F81FFA88F810EBC800AF
:103F20000838ADF80400B8F101080A2023009BB25C
:103F3000320092B2B9FBF0F100FB119010F13001A8
:103F4000C9B20198FFF74DFF0A20B9FBF0F9DAE793
:103F5000EDB2AF4215D0EDB2E81B80B2C000ADF8B3
:103F60000000BDF80800F90011FA80F0ADF8080073
:103F70001020ADF80200220092B200990298FFF7DB
:103F800004FFBDE8F7832DE9FF4F81B0DDF80CA0F9
:103F900002990198FEF745FE5FF0C0402C21018098
:103FA00000200700BDF80A00BFB2874240D2BFB26E
:103FB000BDF8120000FB07F0BDF80A1090FBF1F00D
:103FC00081461FFA89F9BDF8100000FB09F00500D1
:103FD00000200600BDF80800B6B2864226D2B6B26E
:103FE000BDF8100000FB06F0BDF8081090FBF1F0E2
:103FF000804615FA88F0040014F80A00C0B2C00820
:10400000C0B214F80A10C9B28908C9B2490151EA0C
:10401000C02014F80A10C9B2C908C9B208438346BF
:104020005FF0D040A0F800B0761CD3E77F1CB9E762
:1040300005B0BDE8F08F2DE9F34115001E00089C86
:10404000BDF80200BDF806100818B0F10108BDF86F
:104050000000BDF804100818ADF80000BDF8040019
:104060004019451EBDF80400411EADF8041080B291
:10407000002821D02878F6B2B04204D3BDF806005B
:10408000401E070007E02878BDF806104843F6B246
:1040900090FBF6F00700FFB2B8EB0700ADF80200A6
:1040A000BDF80000401EADF800006D1E210089B271
:1040B0000098FFF785FED5E7BDE8F38138B5040029
:1040C00064B26511EDB2002D02D0012D11D021E0B6
:1040D000A348006850F00060A1490860A14800684A
:1040E00030F090009F4908609E489E490968016031
:1040F00014E09D48006850F000609B4908609948B2
:10410000006830F41040974908609648954909685E
:10411000016003E033219548FFF701F864B2200005
:10412000002800F08980012800F08680032800F034
:10413000838008284ED0092851D00A2854D00B2853
:1041400057D00C285AD00D285DD00E2860D00F28EB
:1041500063D0102870D0112864D0122867D013289B
:104160006AD0142868D01A2866D01D2864D01E286A
:1041700062D0202861D021285FD023285DD0242858
:104180005CD025285FD0262862D0272865D0282833
:1041900068D029286BD02A286ED02B2871D02C28E3
:1041A00074D02D2877D02E287AD02F287DD0302893
:1041B00000F0858031287DD0322800F080803328BF
:1041C0007DD034287BD03A2879D03D2877D03E283E
:1041D00075D075E000212020FEF734FF74E0002147
:1041E0002120FEF72FFF6FE000210720FEF72AFFB6
:1041F0006AE000210820FEF725FF65E0002122206B
:10420000FEF720FF60E000212320FEF71BFF5BE0AC
:1042100000214020FEF716FF56E000214120FEF766
:1042200011FF51E000219820FEF70CFF4CE0002127
:104230009920FEF707FF47E046E045E00021802097
:10424000FEF700FF40E000218120FEF7FBFE3BE08F
:1042500000218220FEF7F6FE36E000218320FEF7E3
:10426000F1FE31E000212020FEF7ECFE2CE00021E1
:104270002120FEF7E7FE27E000212420FEF7E2FEE2
:1042800022E000212520FEF7DDFE1DE00021262092
:10429000FEF7D8FE18E000212720FEF7D3FE13E03A
:1042A00000212A20FEF7CEFE0EE000212B20FEF793
:1042B000C9FE09E000211120FEF7C4FE04E003E07E
:1042C0009A212A48FEF72BFF31BDF8B504000D00F6
:1042D00064B266110027290049B2200040B200F004
:1042E0001CF876B2224850F8260000680006F8D57F
:1042F00076B21F4850F826000069070076B21C48C5
:1043000050F82600006830F0800076B2184951F865
:1043100026100860380080B2F2BD30B440B24211BD
:1043200010F01F0352B2124C54F8224049B28D00D3
:1043300015F00C0555F05005A56052B20C4C54F820
:1043400022400425E56052B2094C54F82240DBB209
:1043500013F01F0555F04005256030BC7047000084
:104360003C800440188004403080044078510000B4
:10437000340BFF1F38B504000225E4B2022C03D32E
:1043800034218148FEF7CBFE2800451EC0B200282C
:1043900007D02100C9B2EDB27C48285CFEF715FDBC
:1043A000F2E731BD38B504000225E4B2022C03D394
:1043B00041217548FEF7B3FE2800451EC0B2002813
:1043C00007D02100C9B2EDB27148285CFEF7FDFCB0
:1043D000F2E731BD38B504000225EDB2002D14D04E
:1043E0006D1EEDB26B482856FFF768FE00220121D2
:1043F000EDB26748285CFEF791FC00220121EDB286
:104400006248285CFEF78AFCE7E76348046062487C
:1044100000686249096801FB00F1002000F0F4F82F
:1044200000F0C4F831BD0CB438B505000C006DB215
:10443000032D03DB62215448FEF771FE00226DB2AA
:10444000022D04DA6DB2564B43F8254013E06DB2ED
:10445000022D10D104AB180021002B005D1E5BB2B1
:10446000002B08D0D2B24E4B43F82210521C0368E6
:104470001900001DF1E731BC5DF80CFB10B504001C
:1044800064B2032C03DB7E213F48FEF748FE64B292
:10449000022C07DA0022012164B24248205CFEF7B8
:1044A0003DFC0FE064B2022C0CD12000441E40B24F
:1044B000002807D00022012164B23A48205CFEF7B0
:1044C0002DFCF2E710BD384801210170364890F903
:1044D00000000228FAD1704780B5334890F90000F7
:1044E000012805D100F010F82F480221017001E0E9
:1044F00000F05CF801BD81B0009000994A1E009266
:104500000029FAD101B0704770B580250024002041
:10451000FFF748FF0A20FFF7EEFF0120FFF72AFF11
:104520000A20FFF7E8FF0120FFF73CFF0A20FFF712
:10453000E2FF0020FFF71EFF0A20FFF7DCFF280044
:10454000451EC0B200281ED00020FFF72BFF02201E
:1045500006003000461EC0B200280CD00021F6B282
:104560000C483056FFF7B1FEE4B2F6B20C4951F8F0
:1045700026106054EDE70120FFF714FF0A20FFF733
:10458000BAFF641CDBE770BDDC500000260BFF1F88
:10459000280BFF1F240BFF1FD40DFF1F9411FF1FBB
:1045A000D80DFF1F2A0BFF1FE811FF1F10B5802435
:1045B0000020FFF7F7FE0120FFF79DFF0120FFF726
:1045C000D9FE0120FFF797FF0120FFF7EBFE012046
:1045D000FFF791FF0020FFF7CDFE0120FFF78BFFD3
:1045E0002000441EC0B200280CD00020FFF7DAFEE5
:1045F0000120FFF780FF0120FFF7D4FE0120FFF725
:104600007AFFEDE710BD000038B504000D00002D65
:1046100003D124211748FEF782FD1748006850F4A3
:1046200000001549086015480021016064B22001AE
:1046300013496A1E425064B2114810EB0410C0685E
:1046400050F0010064B20E4911EB0411C86064B26D
:104650000B4810EB041080684008400064B2084921
:1046600011EB0411886064B2054810EB04100321BB
:10467000816031BD2C5100003C800440007003403B
:10468000007103402DE9F8437A4804687A480568C8
:104690007A4806687A4807687A48D0F800807A48ED
:1046A000D0F800904346794A49462000FFF76BFC5A
:1046B0001F200090D023754A49462000FFF7BBFC1D
:1046C00080227249724800F032F84FF4784000902E
:1046D0001F2303226F4801782800FFF7D5FB4FF412
:1046E000784000901F2303226B4801783000FFF7C9
:1046F000CBFB4FF4784000901F23032267480178DA
:104700003800FFF7C1FB63480178654800F0D0F836
:1047100061480178634800F0CBF86048017862484E
:1047200000F0C6F85D4800784038BDE8F283F0B587
:104730000024002500264027B6B23F2E1FD2B6B275
:1047400016EB010C9CF902C0B6B216F901E0BCEB05
:104750000E0C6346A4465FFA8CFC9E464FFA8EFE12
:104760000FFA8CFC0FFA8EFEF44504DADFF824C150
:104770008CF800601C000370401C761CDCE7DFF83E
:104780002CC19CF800C0E4B2A44519D391F800C034
:1047900091F801E05EFA8CFC5FF0020E9CFBFEFCDF
:1047A000BCF1800F06DADFF8ECC05FF03F0E8CF84A
:1047B00000E005E0DFF8DCC05FF0000E8CF800E000
:1047C000BFB27E2F1ED2BFB217F901C0BFB217EB26
:1047D000010E9EF902E0BCEB0E0C6346AC465FFA9C
:1047E0008CFC9E464FFA8EFE0FFA8CFC0FFA8EFE62
:1047F000F44504DADFF8A0C08CF800701D00401CFE
:104800007F1CDDE7DFF8A4C09CF800C0EDB2AC452A
:1048100019D391F87EC091F87FE01EEB0C0C5FF08D
:10482000020E9CFBFEFCBCF1800F06DADFF868C0CC
:104830005FF0400E8CF800E005E0DFF85CC05FF050
:104840007F0E8CF800E05FF0000C80F800C0DFF80D
:1048500044C09CF800C0DFF840E09EF800E01EEB8A
:104860000C0C5FF0020E9CFBFEFCDFF830E08EF8D3
:1048700000C0F0BD80540000845400008854000043
:104880008C54000090540000945400008C0EFF1FC4
:104890008C0FFF1FE911FF1FEA11FF1FEB11FF1F14
:1048A000E00DFF1F000EFF1F200EFF1FD00BFF1F8C
:1048B000002200231A00D2B21D2A06D2D2B2131847
:1048C0005B78D2B21354521CF5E7D2B21154704740
:1048D000DFF800F01F3100004B48F02101704A481A
:1048E00000780006FBD5484800787121084201D0C5
:1048F000002000E0012070474448006850F4002088
:10490000424908604248006850F40020404908606D
:104910003D4800780006FBD53B48F0210170704708
:1049200010B582B00400A4B24FF4006000FB04F0A4
:1049300000903848092101709DF80200364908703E
:104940009DF801003549087035489DF80010017048
:10495000FFF7C2FF002801D100200CE0A4B2002C18
:1049600008D17FF0010240F20C41200080B200F03B
:1049700003F800E0012016BD7CB504000D00160010
:10498000A4B24FF40060ADB200FB04500190ADB290
:10499000042095FBF0F101FB1051002903D0F52113
:1049A0002048FFF795FF40F60100ADB2854203D3E2
:1049B000F7211C48FFF78CFF9DF806001649087088
:1049C0009DF805001549087015489DF80410017000
:1049D00000969DF80300144908709DF802001349E1
:1049E00008709DF801001249087012489DF80010E7
:1049F0000170084806210170FFF76EFF002801D101
:104A0000002000E0012076BD0000024004F00140DB
:104A100008F0014007000240060002400500024085
:104A200004000240C45100000B0002400A00024092
:104A30000900024008000240F0B4114E366834000C
:104A40000F4E366856F47F060D4F3E600E0616F088
:104A5000706656EA0076170517F470073E431F0488
:104A600017F470273E43074F3E6000263500EDB235
:104A70009D4201D26D1CFAE7014E3460F0BC7047D4
:104A800000F001404480044010B440B241093A4A69
:104A9000012310F01F04A34042F8213010BC7047DE
:104AA00080B572B63548364909788161354A36494C
:104AB0000220FFF7B8FC35480078FFF78BFCFFF7C2
:104AC0004FF90220FFF7DAFC42F23413642200218E
:104AD0000120FEF7D9FD0220FEF792FE2C48006867
:104AE0000A2101FB00F10120FFF78EFD0FF25501B5
:104AF000542000F06CF80FF26101552000F067F8C7
:104B00004420FFF7C1FF4520FFF7BEFF62B64FF418
:104B1000FA70FEF701FAFFF7D6FCFFF7B3FD1D4967
:104B200008601C48006800F069F81B4908601948D3
:104B3000006800F098F8194908600520FEF7ECF9C4
:104B4000E9E7000080B5FFF7C7FC1548006850F0A2
:104B500001001349086001BD80B50220FEF7D3FEB5
:104B6000104908600220FEF7E4FE0F48006850F08C
:104B700001000D49086001BD00E100E0680EFF1F63
:104B8000D20BFF1F0C0FFF1F8C0EFF1FD80BFF1F38
:104B90009411FF1F400EFF1F480EFF1F4C0EFF1FFA
:104BA0000C710340440EFF1F1C71034010B504003C
:104BB0004FF4007094FBF0F101FB1041002903D089
:104BC0001E210B48FEF7ABFA0A48046010BD38B549
:104BD00004000D00074800680749884203D03021CF
:104BE0000348FEF79CFA64B2034840F8245031BDF4
:104BF000F452000008ED00E00000FF1F70B5040053
:104C000000252C482C49096801602A482B4909686D
:104C10004160284804812748B0F9080000F056F8A0
:104C20002449096800F06CF806002248B0F90A002F
:104C30002049B1F90C10401A00F048F81D494968A4
:104C400000F05EF8310000F0C7F800F007F900B29C
:104C5000050018481749498981811648154909896D
:104C60004181280070BD70B50400200000F02EF8CE
:104C70001349096891F0004100F042F80600200055
:104C800000F024F8310000F03BF806000D480078F1
:104C900000F026F8310000F09FF800F0DFF8050082
:104CA00009480078854202DA0748007805002800A4
:104CB00070BD0000580EFF1FD40BFF1F540EFF1FC6
:104CC000500EFF1FD10BFF1FD20BFF1F002840F11A
:104CD0000980F446404200F005F850F0004060477B
:104CE000002800BF0AD0B0FA80F18840D1F19D01C0
:104CF000C905020672F1004241EB10207047000026
:104D0000FF2212EAD05C1DBF12EAD15394459342B0
:104D10002BE09C44D30780EA01021A4043EA0020BA
:104D200043EA0121A1FB0030410038BF40007CF183
:104D30007F010BDBFE294ADA5B0842EAC15153EAE4
:104D4000006373F1004C51EB10207047D1F1080C57
:104D5000DCF120012FDB5B0810FA01F10B4373F14A
:104D6000004120FA0CF05041704794451CBF02EA04
:104D7000D153934280EA010202F000421DD040006C
:104D800019D0490017D05BB9634514D00902B1FAB4
:104D900081F39940BCEB030CC00140F00040C1E737
:104DA0000002B0FA80FC10FA0CF0B3EB0C0CC90155
:104DB00041F00041B6E71000704740000AD04900BA
:104DC00008D010F1807F94BF11F1807F02E042F0A3
:104DD000FF407047D043704790EA010F44BF81F015
:104DE000004100F05DB800BF421A3CBF801A89182C
:104DF0004FF0004CC0F3C752FF2A24D0C1F3C75371
:104E000013B3D21AD2F1190327DD4CEA01214CFA6F
:104E100003F321EA0303D140C20D4CEA00204018FD
:104E200034BF20EA0C004CEA5000D20553EA00637C
:104E300073EB0C0C52EB1020420012F1807F38BF54
:104E40007047C00DC0057047490212BF9A4200EB7F
:104E50005120F8E7D2F11703D9D570474100090E68
:104E60007F3915D4D1F11F0114D4400007D2C001FD
:104E700040F00040C84048BF6FF000407047C0019C
:104E800040F00040C8404CBF4FF0004040427047E7
:104E90000020704700424FF0004058BFC0437047A9
:104EA000431A4FF000423EBF5340C01AC91800BF1A
:104EB000D3095FEAD05C13EB400F34BFB3EB410F73
:104EC00040E07CEBD1530CD342EA012122D8D1EB54
:104ED000402009D3400A28BF5FEA500140EBCC5084
:104EE0007047401A15D04002B0FA80F2521C904030
:104EF000400A4FEA3C23B3EB026384BF00EB73002C
:104F000007E040F400001A16DB07C2F10102D040AE
:104F100018437047182BFCDC31FA03F202FA03F352
:104F2000591A38BF42F00102D2EB40203CBF40008A
:104F3000ACF1010C5FEACC5CC20572F100414CEBB4
:104F40005020704713EB400F0FD24B0009D0ACEB51
:104F5000D153022B03DB4902172BDDDD7047914350
:104F6000401A4300D5D10020704713EB410FD0D336
:104F70006FF000007047000080B500F08FF800F07F
:104F800025F800F005F8FEF7DDF8FFF789FDFEE7EC
:104F900080B50E20FEF77DFE32490860314800687A
:104FA0004FF47A714843304908602F4800682F4910
:104FB0000968C1F30361491CB0FBF1F02C4908609A
:104FC0005FF4E1310320FEF73BF901BD2DE9F84321
:104FD0002848294988420DD000208046B8F5826FC4
:104FE00008D22448244951F8281040F8281018F114
:104FF0000108F3E71F48FFF7D9FD204807002048C4
:10500000060020480400A01B80464046B0F101087D
:10501000002804D030783870761C7F1CF5E71A48D9
:1050200081461A480500B5EB090080464046B0F1BC
:105030000108002805D0002089F8000019F10109B5
:10504000F4E713481349144A531A98464346B3F1F8
:105050000108002B04D00B780370491C401CF5E7B5
:10506000BDE8F1839011FF1F8C11FF1F44800440A5
:105070009411FF1F0000FF1F000000001004FF1F1D
:105080002819000034210000D40DFF1FEC11FF1F70
:105090001C0CFF1FD0480000884A000080B500F0BB
:1050A00009F80C4800884FF6FE710840094908804D
:1050B00001BD0000EFF3118072B607494CF2205297
:1050C0000A8005494DF628120A80C0B2002800D196
:1050D00062B67047002005400E200540433A5C55FB
:1050E000736572735C6A6F736875615C4465736B3A
:1050F000746F705CD7D4D6C6BFF2BCDC5CD7D4D694
:10510000C6BFF2BCDC202D20CACAC5E4D2B0BBF0B9
:105110005C426F6172645C7372635C464952455FC6
:1051200054534C313430312E63000000433A5C5507
:10513000736572735C6A6F736875615C4465736BE9
:10514000746F705CD7D4D6C6BFF2BCDC5CD7D4D643
:10515000C6BFF2BCDC202D20CACAC5E4D2B0BBF069
:105160005C436869705C7372635C4D4B36305F50B2
:1051700049542E6300000000433A5C557365727316
:105180005C6A6F736875615C4465736B746F705CA7
:10519000D7D4D6C6BFF2BCDC5CD7D4D6C6BFF2BC6F
:1051A000DC202D20CACAC5E4D2B0BBF05C436869DC
:1051B000705C7372635C4D4B36305F6164632E6369
:1051C00000000000433A5C55736572735C6A6F734C
:1051D0006875615C4465736B746F705CD7D4D6C6B8
:1051E000BFF2BCDC5CD7D4D6C6BFF2BCDC202D201D
:1051F000CACAC5E4D2B0BBF05C436869705C737224
:10520000635C4D4B36305F666C6173682E630000E3
:10521000433A5C55736572735C6A6F736875615C61
:105220004465736B746F705CD7D4D6C6BFF2BCDCB8
:105230005CD7D4D6C6BFF2BCDC202D20CACAC5E4D8
:10524000D2B0BBF05C436869705C7372635C4D4BB9
:1052500036305F66746D2E6300000000433A5C5583
:10526000736572735C6A6F736875615C4465736BB8
:10527000746F705CD7D4D6C6BFF2BCDC5CD7D4D612
:10528000C6BFF2BCDC202D20CACAC5E4D2B0BBF038
:105290005C436869705C7372635C4D4B36305F676A
:1052A00070696F2E63000000433A5C55736572733A
:1052B0005C6A6F736875615C4465736B746F705C76
:1052C000D7D4D6C6BFF2BCDC5CD7D4D6C6BFF2BC3E
:1052D000DC202D20CACAC5E4D2B0BBF05C436869AB
:1052E000705C7372635C4D4B36305F756172742E07
:1052F00063000000433A5C55736572735C6A6F73B8
:105300006875615C4465736B746F705CD7D4D6C686
:10531000BFF2BCDC5CD7D4D6C6BFF2BCDC202D20EB
:10532000CACAC5E4D2B0BBF05C436869705C7372F2
:10533000635C6D6973632E63000000000A2A2A2AE9
:105340002A64656661756C745F69737220656E743A
:1053500065726564206F6E20766563746F722025B8
:10536000642A2A2A2A2A0D0A0A257320496E74659E
:10537000727275707400000010B5084979441C31D0
:10538000074C7C441A34A14206D0081D0A68511803
:1053900088470146A142F8D110BD00BF2C00000093
:1053A00038000000417373657274696F6E20666126
:1053B000696C656420696E202573206174206C69B6
:1053C0006E652025640A0000AFBBFFFF18040000D3
:1053D000D40DFF1F000000000ABDF8D0D0BDE2CB05
:1053E000F8B2D9D7F7A3ACC7EBD6D8D0C2CBA2C8F6
:1053F000EBB9CCBCFE00000000F009F8002801D099
:10540000FFF7BAFF0020FFF74BFB00F002F8012086
:10541000704700F001B800000746384600F002F877
:10542000FBE7000001491820ABBEFBE726000200A5
:1054300038B504460D46284600F006F8A84218BFC5
:105440000024204632BD00000149FDF771BE00BFB7
:10545000DC0BFF1F0ABDF8C8EBCBC0D1ADBBB7B5A5
:10546000C8B4FDA3A1000000C046C046C046C04667
:10547000FFF7C2FF0000000001000100080010005B
:1054800000000000000046006400460032004600B4
:105490008000010080001E000000000000000000ED
:1054A00000000000000000000000000000000000FC
:1054B00000000000FFFFFFFFFFFFFFFF00000000F4
:1054C00000000000000000000000000000000000DC
:1054D00000000000000000000000000000000000CC
:0854E000FFFFFFFFFFFF0000CA
:04000005000054693A
:00000001FF
